{
  "_format": "hh-sol-artifact-1",
  "contractName": "Metarrior",
  "sourceName": "contracts/Metarrior.sol",
  "abi": [
    {
      "anonymous": false,
      "inputs": [
        {
          "indexed": true,
          "internalType": "address",
          "name": "owner",
          "type": "address"
        },
        {
          "indexed": true,
          "internalType": "address",
          "name": "spender",
          "type": "address"
        },
        {
          "indexed": false,
          "internalType": "uint256",
          "name": "value",
          "type": "uint256"
        }
      ],
      "name": "Approval",
      "type": "event"
    },
    {
      "anonymous": false,
      "inputs": [
        {
          "indexed": false,
          "internalType": "address",
          "name": "account",
          "type": "address"
        }
      ],
      "name": "Paused",
      "type": "event"
    },
    {
      "anonymous": false,
      "inputs": [
        {
          "indexed": true,
          "internalType": "bytes32",
          "name": "role",
          "type": "bytes32"
        },
        {
          "indexed": true,
          "internalType": "bytes32",
          "name": "previousAdminRole",
          "type": "bytes32"
        },
        {
          "indexed": true,
          "internalType": "bytes32",
          "name": "newAdminRole",
          "type": "bytes32"
        }
      ],
      "name": "RoleAdminChanged",
      "type": "event"
    },
    {
      "anonymous": false,
      "inputs": [
        {
          "indexed": true,
          "internalType": "bytes32",
          "name": "role",
          "type": "bytes32"
        },
        {
          "indexed": true,
          "internalType": "address",
          "name": "account",
          "type": "address"
        },
        {
          "indexed": true,
          "internalType": "address",
          "name": "sender",
          "type": "address"
        }
      ],
      "name": "RoleGranted",
      "type": "event"
    },
    {
      "anonymous": false,
      "inputs": [
        {
          "indexed": true,
          "internalType": "bytes32",
          "name": "role",
          "type": "bytes32"
        },
        {
          "indexed": true,
          "internalType": "address",
          "name": "account",
          "type": "address"
        },
        {
          "indexed": true,
          "internalType": "address",
          "name": "sender",
          "type": "address"
        }
      ],
      "name": "RoleRevoked",
      "type": "event"
    },
    {
      "anonymous": false,
      "inputs": [
        {
          "indexed": true,
          "internalType": "address",
          "name": "from",
          "type": "address"
        },
        {
          "indexed": true,
          "internalType": "address",
          "name": "to",
          "type": "address"
        },
        {
          "indexed": false,
          "internalType": "uint256",
          "name": "value",
          "type": "uint256"
        }
      ],
      "name": "Transfer",
      "type": "event"
    },
    {
      "anonymous": false,
      "inputs": [
        {
          "indexed": false,
          "internalType": "address",
          "name": "account",
          "type": "address"
        }
      ],
      "name": "Unpaused",
      "type": "event"
    },
    {
      "inputs": [],
      "name": "DEFAULT_ADMIN_ROLE",
      "outputs": [
        {
          "internalType": "bytes32",
          "name": "",
          "type": "bytes32"
        }
      ],
      "stateMutability": "view",
      "type": "function"
    },
    {
      "inputs": [],
      "name": "MINTER_ROLE",
      "outputs": [
        {
          "internalType": "bytes32",
          "name": "",
          "type": "bytes32"
        }
      ],
      "stateMutability": "view",
      "type": "function"
    },
    {
      "inputs": [],
      "name": "PAUSER_ROLE",
      "outputs": [
        {
          "internalType": "bytes32",
          "name": "",
          "type": "bytes32"
        }
      ],
      "stateMutability": "view",
      "type": "function"
    },
    {
      "inputs": [
        {
          "internalType": "address",
          "name": "owner",
          "type": "address"
        },
        {
          "internalType": "address",
          "name": "spender",
          "type": "address"
        }
      ],
      "name": "allowance",
      "outputs": [
        {
          "internalType": "uint256",
          "name": "",
          "type": "uint256"
        }
      ],
      "stateMutability": "view",
      "type": "function"
    },
    {
      "inputs": [
        {
          "internalType": "address",
          "name": "spender",
          "type": "address"
        },
        {
          "internalType": "uint256",
          "name": "amount",
          "type": "uint256"
        }
      ],
      "name": "approve",
      "outputs": [
        {
          "internalType": "bool",
          "name": "",
          "type": "bool"
        }
      ],
      "stateMutability": "nonpayable",
      "type": "function"
    },
    {
      "inputs": [
        {
          "internalType": "address",
          "name": "account",
          "type": "address"
        }
      ],
      "name": "balanceOf",
      "outputs": [
        {
          "internalType": "uint256",
          "name": "",
          "type": "uint256"
        }
      ],
      "stateMutability": "view",
      "type": "function"
    },
    {
      "inputs": [
        {
          "internalType": "uint256",
          "name": "amount",
          "type": "uint256"
        }
      ],
      "name": "burn",
      "outputs": [],
      "stateMutability": "nonpayable",
      "type": "function"
    },
    {
      "inputs": [
        {
          "internalType": "address",
          "name": "account",
          "type": "address"
        },
        {
          "internalType": "uint256",
          "name": "amount",
          "type": "uint256"
        }
      ],
      "name": "burnFrom",
      "outputs": [],
      "stateMutability": "nonpayable",
      "type": "function"
    },
    {
      "inputs": [],
      "name": "decimals",
      "outputs": [
        {
          "internalType": "uint8",
          "name": "",
          "type": "uint8"
        }
      ],
      "stateMutability": "view",
      "type": "function"
    },
    {
      "inputs": [
        {
          "internalType": "address",
          "name": "spender",
          "type": "address"
        },
        {
          "internalType": "uint256",
          "name": "subtractedValue",
          "type": "uint256"
        }
      ],
      "name": "decreaseAllowance",
      "outputs": [
        {
          "internalType": "bool",
          "name": "",
          "type": "bool"
        }
      ],
      "stateMutability": "nonpayable",
      "type": "function"
    },
    {
      "inputs": [
        {
          "internalType": "bytes32",
          "name": "role",
          "type": "bytes32"
        }
      ],
      "name": "getRoleAdmin",
      "outputs": [
        {
          "internalType": "bytes32",
          "name": "",
          "type": "bytes32"
        }
      ],
      "stateMutability": "view",
      "type": "function"
    },
    {
      "inputs": [
        {
          "internalType": "bytes32",
          "name": "role",
          "type": "bytes32"
        },
        {
          "internalType": "uint256",
          "name": "index",
          "type": "uint256"
        }
      ],
      "name": "getRoleMember",
      "outputs": [
        {
          "internalType": "address",
          "name": "",
          "type": "address"
        }
      ],
      "stateMutability": "view",
      "type": "function"
    },
    {
      "inputs": [
        {
          "internalType": "bytes32",
          "name": "role",
          "type": "bytes32"
        }
      ],
      "name": "getRoleMemberCount",
      "outputs": [
        {
          "internalType": "uint256",
          "name": "",
          "type": "uint256"
        }
      ],
      "stateMutability": "view",
      "type": "function"
    },
    {
      "inputs": [
        {
          "internalType": "bytes32",
          "name": "role",
          "type": "bytes32"
        },
        {
          "internalType": "address",
          "name": "account",
          "type": "address"
        }
      ],
      "name": "grantRole",
      "outputs": [],
      "stateMutability": "nonpayable",
      "type": "function"
    },
    {
      "inputs": [
        {
          "internalType": "bytes32",
          "name": "role",
          "type": "bytes32"
        },
        {
          "internalType": "address",
          "name": "account",
          "type": "address"
        }
      ],
      "name": "hasRole",
      "outputs": [
        {
          "internalType": "bool",
          "name": "",
          "type": "bool"
        }
      ],
      "stateMutability": "view",
      "type": "function"
    },
    {
      "inputs": [
        {
          "internalType": "address",
          "name": "spender",
          "type": "address"
        },
        {
          "internalType": "uint256",
          "name": "addedValue",
          "type": "uint256"
        }
      ],
      "name": "increaseAllowance",
      "outputs": [
        {
          "internalType": "bool",
          "name": "",
          "type": "bool"
        }
      ],
      "stateMutability": "nonpayable",
      "type": "function"
    },
    {
      "inputs": [],
      "name": "init",
      "outputs": [],
      "stateMutability": "nonpayable",
      "type": "function"
    },
    {
      "inputs": [
        {
          "internalType": "string",
          "name": "name",
          "type": "string"
        },
        {
          "internalType": "string",
          "name": "symbol",
          "type": "string"
        }
      ],
      "name": "initialize",
      "outputs": [],
      "stateMutability": "nonpayable",
      "type": "function"
    },
    {
      "inputs": [
        {
          "internalType": "address",
          "name": "to",
          "type": "address"
        },
        {
          "internalType": "uint256",
          "name": "amount",
          "type": "uint256"
        }
      ],
      "name": "mint",
      "outputs": [],
      "stateMutability": "nonpayable",
      "type": "function"
    },
    {
      "inputs": [],
      "name": "name",
      "outputs": [
        {
          "internalType": "string",
          "name": "",
          "type": "string"
        }
      ],
      "stateMutability": "view",
      "type": "function"
    },
    {
      "inputs": [],
      "name": "pause",
      "outputs": [],
      "stateMutability": "nonpayable",
      "type": "function"
    },
    {
      "inputs": [],
      "name": "paused",
      "outputs": [
        {
          "internalType": "bool",
          "name": "",
          "type": "bool"
        }
      ],
      "stateMutability": "view",
      "type": "function"
    },
    {
      "inputs": [
        {
          "internalType": "bytes32",
          "name": "role",
          "type": "bytes32"
        },
        {
          "internalType": "address",
          "name": "account",
          "type": "address"
        }
      ],
      "name": "renounceRole",
      "outputs": [],
      "stateMutability": "nonpayable",
      "type": "function"
    },
    {
      "inputs": [
        {
          "internalType": "bytes32",
          "name": "role",
          "type": "bytes32"
        },
        {
          "internalType": "address",
          "name": "account",
          "type": "address"
        }
      ],
      "name": "revokeRole",
      "outputs": [],
      "stateMutability": "nonpayable",
      "type": "function"
    },
    {
      "inputs": [
        {
          "internalType": "bytes4",
          "name": "interfaceId",
          "type": "bytes4"
        }
      ],
      "name": "supportsInterface",
      "outputs": [
        {
          "internalType": "bool",
          "name": "",
          "type": "bool"
        }
      ],
      "stateMutability": "view",
      "type": "function"
    },
    {
      "inputs": [],
      "name": "symbol",
      "outputs": [
        {
          "internalType": "string",
          "name": "",
          "type": "string"
        }
      ],
      "stateMutability": "view",
      "type": "function"
    },
    {
      "inputs": [],
      "name": "totalMinted",
      "outputs": [
        {
          "internalType": "uint256",
          "name": "",
          "type": "uint256"
        }
      ],
      "stateMutability": "view",
      "type": "function"
    },
    {
      "inputs": [],
      "name": "totalSupply",
      "outputs": [
        {
          "internalType": "uint256",
          "name": "",
          "type": "uint256"
        }
      ],
      "stateMutability": "view",
      "type": "function"
    },
    {
      "inputs": [
        {
          "internalType": "address",
          "name": "to",
          "type": "address"
        },
        {
          "internalType": "uint256",
          "name": "amount",
          "type": "uint256"
        }
      ],
      "name": "transfer",
      "outputs": [
        {
          "internalType": "bool",
          "name": "",
          "type": "bool"
        }
      ],
      "stateMutability": "nonpayable",
      "type": "function"
    },
    {
      "inputs": [
        {
          "internalType": "address",
          "name": "from",
          "type": "address"
        },
        {
          "internalType": "address",
          "name": "to",
          "type": "address"
        },
        {
          "internalType": "uint256",
          "name": "amount",
          "type": "uint256"
        }
      ],
      "name": "transferFrom",
      "outputs": [
        {
          "internalType": "bool",
          "name": "",
          "type": "bool"
        }
      ],
      "stateMutability": "nonpayable",
      "type": "function"
    },
    {
      "inputs": [],
      "name": "unpause",
      "outputs": [],
      "stateMutability": "nonpayable",
      "type": "function"
    }
  ],
  "bytecode": "0x608060405234801561001057600080fd5b50613c2b806100206000396000f3fe608060405234801561001057600080fd5b50600436106101e55760003560e01c806370a082311161010f578063a457c2d7116100a2578063d547741f11610071578063d547741f146105a6578063dd62ed3e146105c2578063e1c7392a146105f2578063e63ab1e9146105fc576101e5565b8063a457c2d7146104f8578063a9059cbb14610528578063ca15c87314610558578063d539139314610588576101e5565b806391d14854116100de57806391d148541461046e57806395d89b411461049e578063a217fddf146104bc578063a2309ff8146104da576101e5565b806370a08231146103e857806379cc6790146104185780638456cb59146104345780639010d07c1461043e576101e5565b8063313ce5671161018757806340c10f191161015657806340c10f191461037657806342966c68146103925780634cd88b76146103ae5780635c975abb146103ca576101e5565b8063313ce5671461030257806336568abe14610320578063395093511461033c5780633f4ba83a1461036c576101e5565b806318160ddd116101c357806318160ddd1461026857806323b872dd14610286578063248a9ca3146102b65780632f2ff15d146102e6576101e5565b806301ffc9a7146101ea57806306fdde031461021a578063095ea7b314610238575b600080fd5b61020460048036038101906101ff9190612a3c565b61061a565b6040516102119190612f29565b60405180910390f35b610222610694565b60405161022f9190612f5f565b60405180910390f35b610252600480360381019061024d919061295f565b610726565b60405161025f9190612f29565b60405180910390f35b610270610749565b60405161027d9190613221565b60405180910390f35b6102a0600480360381019061029b9190612910565b610753565b6040516102ad9190612f29565b60405180910390f35b6102d060048036038101906102cb919061299b565b610782565b6040516102dd9190612f44565b60405180910390f35b61030060048036038101906102fb91906129c4565b6107a2565b005b61030a6107cb565b604051610317919061323c565b60405180910390f35b61033a600480360381019061033591906129c4565b6107d4565b005b6103566004803603810190610351919061295f565b610857565b6040516103639190612f29565b60405180910390f35b610374610901565b005b610390600480360381019061038b919061295f565b61097b565b005b6103ac60048036038101906103a79190612ad1565b610a03565b005b6103c860048036038101906103c39190612a65565b610a17565b005b6103d2610b07565b6040516103df9190612f29565b60405180910390f35b61040260048036038101906103fd91906128ab565b610b1f565b60405161040f9190613221565b60405180910390f35b610432600480360381019061042d919061295f565b610b68565b005b61043c610b88565b005b61045860048036038101906104539190612a00565b610c02565b6040516104659190612f0e565b60405180910390f35b610488600480360381019061048391906129c4565b610c31565b6040516104959190612f29565b60405180910390f35b6104a6610c9c565b6040516104b39190612f5f565b60405180910390f35b6104c4610d2e565b6040516104d19190612f44565b60405180910390f35b6104e2610d35565b6040516104ef9190613221565b60405180910390f35b610512600480360381019061050d919061295f565b610d40565b60405161051f9190612f29565b60405180910390f35b610542600480360381019061053d919061295f565b610e2a565b60405161054f9190612f29565b60405180910390f35b610572600480360381019061056d919061299b565b610e4d565b60405161057f9190613221565b60405180910390f35b610590610e71565b60405161059d9190612f44565b60405180910390f35b6105c060048036038101906105bb91906129c4565b610e95565b005b6105dc60048036038101906105d791906128d4565b610ebe565b6040516105e99190613221565b60405180910390f35b6105fa610f45565b005b6106046110a6565b6040516106119190612f44565b60405180910390f35b60007f5a05180f000000000000000000000000000000000000000000000000000000007bffffffffffffffffffffffffffffffffffffffffffffffffffffffff1916827bffffffffffffffffffffffffffffffffffffffffffffffffffffffff1916148061068d575061068c826110ca565b5b9050919050565b606060cc80546106a3906134af565b80601f01602080910402602001604051908101604052809291908181526020018280546106cf906134af565b801561071c5780601f106106f15761010080835404028352916020019161071c565b820191906000526020600020905b8154815290600101906020018083116106ff57829003601f168201915b5050505050905090565b600080610731611144565b905061073e81858561114c565b600191505092915050565b600060cb54905090565b60008061075e611144565b905061076b858285611317565b6107768585856113a3565b60019150509392505050565b600060656000838152602001908152602001600020600101549050919050565b6107ab82610782565b6107bc816107b7611144565b611627565b6107c683836116c4565b505050565b60006012905090565b6107dc611144565b73ffffffffffffffffffffffffffffffffffffffff168173ffffffffffffffffffffffffffffffffffffffff1614610849576040517f08c379a0000000000000000000000000000000000000000000000000000000008152600401610840906131c1565b60405180910390fd5b61085382826116f8565b5050565b600080610862611144565b90506108f681858560ca60008673ffffffffffffffffffffffffffffffffffffffff1673ffffffffffffffffffffffffffffffffffffffff16815260200190815260200160002060008973ffffffffffffffffffffffffffffffffffffffff1673ffffffffffffffffffffffffffffffffffffffff168152602001908152602001600020546108f191906132d4565b61114c565b600191505092915050565b6109327f65d7a28e3265b37a6474929f336521b332c1681b933f6cb9f3376673440d862a61092d611144565b610c31565b610971576040517f08c379a000000000000000000000000000000000000000000000000000000000815260040161096890613001565b60405180910390fd5b61097961172c565b565b806101c3546b06765c793fa10079d00000006109979190613384565b10156109d8576040517f08c379a00000000000000000000000000000000000000000000000000000000081526004016109cf90613181565b60405180910390fd5b6109e282826117cf565b6109f8816101c35461184d90919063ffffffff16565b6101c3819055505050565b610a14610a0e611144565b82611863565b50565b600060019054906101000a900460ff16610a3f5760008054906101000a900460ff1615610a48565b610a47611a3c565b5b610a87576040517f08c379a0000000000000000000000000000000000000000000000000000000008152600401610a7e906130a1565b60405180910390fd5b60008060019054906101000a900460ff161590508015610ad7576001600060016101000a81548160ff02191690831515021790555060016000806101000a81548160ff0219169083151502179055505b610ae18383611a4d565b8015610b025760008060016101000a81548160ff0219169083151502179055505b505050565b600061012d60009054906101000a900460ff16905090565b600060c960008373ffffffffffffffffffffffffffffffffffffffff1673ffffffffffffffffffffffffffffffffffffffff168152602001908152602001600020549050919050565b610b7a82610b74611144565b83611317565b610b848282611863565b5050565b610bb97f65d7a28e3265b37a6474929f336521b332c1681b933f6cb9f3376673440d862a610bb4611144565b610c31565b610bf8576040517f08c379a0000000000000000000000000000000000000000000000000000000008152600401610bef90613141565b60405180910390fd5b610c00611abc565b565b6000610c298260976000868152602001908152602001600020611b6090919063ffffffff16565b905092915050565b60006065600084815260200190815260200160002060000160008373ffffffffffffffffffffffffffffffffffffffff1673ffffffffffffffffffffffffffffffffffffffff16815260200190815260200160002060009054906101000a900460ff16905092915050565b606060cd8054610cab906134af565b80601f0160208091040260200160405190810160405280929190818152602001828054610cd7906134af565b8015610d245780601f10610cf957610100808354040283529160200191610d24565b820191906000526020600020905b815481529060010190602001808311610d0757829003601f168201915b5050505050905090565b6000801b81565b60006101c354905090565b600080610d4b611144565b9050600060ca60008373ffffffffffffffffffffffffffffffffffffffff1673ffffffffffffffffffffffffffffffffffffffff16815260200190815260200160002060008673ffffffffffffffffffffffffffffffffffffffff1673ffffffffffffffffffffffffffffffffffffffff16815260200190815260200160002054905083811015610e11576040517f08c379a0000000000000000000000000000000000000000000000000000000008152600401610e08906131a1565b60405180910390fd5b610e1e828686840361114c565b60019250505092915050565b600080610e35611144565b9050610e428185856113a3565b600191505092915050565b6000610e6a60976000848152602001908152602001600020611b7a565b9050919050565b7f9f2df0fed2c77648de5860a4cc508cd0818c85b8b8a1ab4ceeef8d981c8956a681565b610e9e82610782565b610eaf81610eaa611144565b611627565b610eb983836116f8565b505050565b600060ca60008473ffffffffffffffffffffffffffffffffffffffff1673ffffffffffffffffffffffffffffffffffffffff16815260200190815260200160002060008373ffffffffffffffffffffffffffffffffffffffff1673ffffffffffffffffffffffffffffffffffffffff16815260200190815260200160002054905092915050565b600060019054906101000a900460ff16610f6d5760008054906101000a900460ff1615610f76565b610f75611a3c565b5b610fb5576040517f08c379a0000000000000000000000000000000000000000000000000000000008152600401610fac906130a1565b60405180910390fd5b60008060019054906101000a900460ff161590508015611005576001600060016101000a81548160ff02191690831515021790555060016000806101000a81548160ff0219169083151502179055505b60006101c3819055506110826040518060400160405280600981526020017f4d6574617272696f7200000000000000000000000000000000000000000000008152506040518060400160405280600481526020017f4d45574100000000000000000000000000000000000000000000000000000000815250611a4d565b80156110a35760008060016101000a81548160ff0219169083151502179055505b50565b7f65d7a28e3265b37a6474929f336521b332c1681b933f6cb9f3376673440d862a81565b60007f7965db0b000000000000000000000000000000000000000000000000000000007bffffffffffffffffffffffffffffffffffffffffffffffffffffffff1916827bffffffffffffffffffffffffffffffffffffffffffffffffffffffff1916148061113d575061113c82611b8f565b5b9050919050565b600033905090565b600073ffffffffffffffffffffffffffffffffffffffff168373ffffffffffffffffffffffffffffffffffffffff1614156111bc576040517f08c379a00000000000000000000000000000000000000000000000000000000081526004016111b390613121565b60405180910390fd5b600073ffffffffffffffffffffffffffffffffffffffff168273ffffffffffffffffffffffffffffffffffffffff16141561122c576040517f08c379a000000000000000000000000000000000000000000000000000000000815260040161122390613021565b60405180910390fd5b8060ca60008573ffffffffffffffffffffffffffffffffffffffff1673ffffffffffffffffffffffffffffffffffffffff16815260200190815260200160002060008473ffffffffffffffffffffffffffffffffffffffff1673ffffffffffffffffffffffffffffffffffffffff168152602001908152602001600020819055508173ffffffffffffffffffffffffffffffffffffffff168373ffffffffffffffffffffffffffffffffffffffff167f8c5be1e5ebec7d5bd14f71427d1e84f3dd0314c0f7b2291e5b200ac8c7c3b9258360405161130a9190613221565b60405180910390a3505050565b60006113238484610ebe565b90507fffffffffffffffffffffffffffffffffffffffffffffffffffffffffffffffff811461139d578181101561138f576040517f08c379a000000000000000000000000000000000000000000000000000000000815260040161138690613041565b60405180910390fd5b61139c848484840361114c565b5b50505050565b600073ffffffffffffffffffffffffffffffffffffffff168373ffffffffffffffffffffffffffffffffffffffff161415611413576040517f08c379a000000000000000000000000000000000000000000000000000000000815260040161140a90613101565b60405180910390fd5b600073ffffffffffffffffffffffffffffffffffffffff168273ffffffffffffffffffffffffffffffffffffffff161415611483576040517f08c379a000000000000000000000000000000000000000000000000000000000815260040161147a90612fa1565b60405180910390fd5b61148e838383611bf9565b600060c960008573ffffffffffffffffffffffffffffffffffffffff1673ffffffffffffffffffffffffffffffffffffffff16815260200190815260200160002054905081811015611515576040517f08c379a000000000000000000000000000000000000000000000000000000000815260040161150c90613061565b60405180910390fd5b81810360c960008673ffffffffffffffffffffffffffffffffffffffff1673ffffffffffffffffffffffffffffffffffffffff168152602001908152602001600020819055508160c960008573ffffffffffffffffffffffffffffffffffffffff1673ffffffffffffffffffffffffffffffffffffffff16815260200190815260200160002060008282546115aa91906132d4565b925050819055508273ffffffffffffffffffffffffffffffffffffffff168473ffffffffffffffffffffffffffffffffffffffff167fddf252ad1be2c89b69c2b068fc378daa952ba7f163c4a11628f55a4df523b3ef8460405161160e9190613221565b60405180910390a3611621848484611c09565b50505050565b6116318282610c31565b6116c0576116568173ffffffffffffffffffffffffffffffffffffffff166014611c0e565b6116648360001c6020611c0e565b604051602001611675929190612ed4565b6040516020818303038152906040526040517f08c379a00000000000000000000000000000000000000000000000000000000081526004016116b79190612f5f565b60405180910390fd5b5050565b6116ce8282611f08565b6116f38160976000858152602001908152602001600020611fe990919063ffffffff16565b505050565b6117028282612019565b61172781609760008581526020019081526020016000206120fb90919063ffffffff16565b505050565b611734610b07565b611773576040517f08c379a000000000000000000000000000000000000000000000000000000000815260040161176a90612fc1565b60405180910390fd5b600061012d60006101000a81548160ff0219169083151502179055507f5db9ee0a495bf2e6ff9c91a7834c1ba4fdd244a5e8aa4e537bd38aeae4b073aa6117b8611144565b6040516117c59190612f0e565b60405180910390a1565b6118007f9f2df0fed2c77648de5860a4cc508cd0818c85b8b8a1ab4ceeef8d981c8956a66117fb611144565b610c31565b61183f576040517f08c379a0000000000000000000000000000000000000000000000000000000008152600401611836906130c1565b60405180910390fd5b611849828261212b565b5050565b6000818361185b91906132d4565b905092915050565b600073ffffffffffffffffffffffffffffffffffffffff168273ffffffffffffffffffffffffffffffffffffffff1614156118d3576040517f08c379a00000000000000000000000000000000000000000000000000000000081526004016118ca906130e1565b60405180910390fd5b6118df82600083611bf9565b600060c960008473ffffffffffffffffffffffffffffffffffffffff1673ffffffffffffffffffffffffffffffffffffffff16815260200190815260200160002054905081811015611966576040517f08c379a000000000000000000000000000000000000000000000000000000000815260040161195d90612fe1565b60405180910390fd5b81810360c960008573ffffffffffffffffffffffffffffffffffffffff1673ffffffffffffffffffffffffffffffffffffffff168152602001908152602001600020819055508160cb60008282546119be9190613384565b92505081905550600073ffffffffffffffffffffffffffffffffffffffff168373ffffffffffffffffffffffffffffffffffffffff167fddf252ad1be2c89b69c2b068fc378daa952ba7f163c4a11628f55a4df523b3ef84604051611a239190613221565b60405180910390a3611a3783600084611c09565b505050565b6000611a473061228c565b15905090565b600060019054906101000a900460ff16611a9c576040517f08c379a0000000000000000000000000000000000000000000000000000000008152600401611a9390613161565b60405180910390fd5b611aa682826122af565b611aae612330565b611ab8828261239d565b5050565b611ac4610b07565b15611b04576040517f08c379a0000000000000000000000000000000000000000000000000000000008152600401611afb90613081565b60405180910390fd5b600161012d60006101000a81548160ff0219169083151502179055507f62e78cea01bee320cd4e420270b5ea74000d11b0c9f74754ebdbfc544b05a258611b49611144565b604051611b569190612f0e565b60405180910390a1565b6000611b6f8360000183612466565b60001c905092915050565b6000611b88826000016124b7565b9050919050565b60007f01ffc9a7000000000000000000000000000000000000000000000000000000007bffffffffffffffffffffffffffffffffffffffffffffffffffffffff1916827bffffffffffffffffffffffffffffffffffffffffffffffffffffffff1916149050919050565b611c048383836124c8565b505050565b505050565b606060006002836002611c21919061332a565b611c2b91906132d4565b67ffffffffffffffff811115611c6a577f4e487b7100000000000000000000000000000000000000000000000000000000600052604160045260246000fd5b6040519080825280601f01601f191660200182016040528015611c9c5781602001600182028036833780820191505090505b5090507f300000000000000000000000000000000000000000000000000000000000000081600081518110611cfa577f4e487b7100000000000000000000000000000000000000000000000000000000600052603260045260246000fd5b60200101907effffffffffffffffffffffffffffffffffffffffffffffffffffffffffffff1916908160001a9053507f780000000000000000000000000000000000000000000000000000000000000081600181518110611d84577f4e487b7100000000000000000000000000000000000000000000000000000000600052603260045260246000fd5b60200101907effffffffffffffffffffffffffffffffffffffffffffffffffffffffffffff1916908160001a90535060006001846002611dc4919061332a565b611dce91906132d4565b90505b6001811115611eba577f3031323334353637383961626364656600000000000000000000000000000000600f861660108110611e36577f4e487b7100000000000000000000000000000000000000000000000000000000600052603260045260246000fd5b1a60f81b828281518110611e73577f4e487b7100000000000000000000000000000000000000000000000000000000600052603260045260246000fd5b60200101907effffffffffffffffffffffffffffffffffffffffffffffffffffffffffffff1916908160001a905350600485901c945080611eb390613485565b9050611dd1565b5060008414611efe576040517f08c379a0000000000000000000000000000000000000000000000000000000008152600401611ef590612f81565b60405180910390fd5b8091505092915050565b611f128282610c31565b611fe55760016065600084815260200190815260200160002060000160008373ffffffffffffffffffffffffffffffffffffffff1673ffffffffffffffffffffffffffffffffffffffff16815260200190815260200160002060006101000a81548160ff021916908315150217905550611f8a611144565b73ffffffffffffffffffffffffffffffffffffffff168173ffffffffffffffffffffffffffffffffffffffff16837f2f8788117e7eff1d82e926ec794901d17c78024a50270940304540a733656f0d60405160405180910390a45b5050565b6000612011836000018373ffffffffffffffffffffffffffffffffffffffff1660001b612520565b905092915050565b6120238282610c31565b156120f75760006065600084815260200190815260200160002060000160008373ffffffffffffffffffffffffffffffffffffffff1673ffffffffffffffffffffffffffffffffffffffff16815260200190815260200160002060006101000a81548160ff02191690831515021790555061209c611144565b73ffffffffffffffffffffffffffffffffffffffff168173ffffffffffffffffffffffffffffffffffffffff16837ff6391f5c32d9c69d2a47ea670b442974b53935d1edc7fd64eb21e047a839171b60405160405180910390a45b5050565b6000612123836000018373ffffffffffffffffffffffffffffffffffffffff1660001b612590565b905092915050565b600073ffffffffffffffffffffffffffffffffffffffff168273ffffffffffffffffffffffffffffffffffffffff16141561219b576040517f08c379a0000000000000000000000000000000000000000000000000000000008152600401612192906131e1565b60405180910390fd5b6121a760008383611bf9565b8060cb60008282546121b991906132d4565b925050819055508060c960008473ffffffffffffffffffffffffffffffffffffffff1673ffffffffffffffffffffffffffffffffffffffff168152602001908152602001600020600082825461220f91906132d4565b925050819055508173ffffffffffffffffffffffffffffffffffffffff16600073ffffffffffffffffffffffffffffffffffffffff167fddf252ad1be2c89b69c2b068fc378daa952ba7f163c4a11628f55a4df523b3ef836040516122749190613221565b60405180910390a361228860008383611c09565b5050565b6000808273ffffffffffffffffffffffffffffffffffffffff163b119050919050565b600060019054906101000a900460ff166122fe576040517f08c379a00000000000000000000000000000000000000000000000000000000081526004016122f590613161565b60405180910390fd5b8160cc908051906020019061231492919061274c565b508060cd908051906020019061232b92919061274c565b505050565b600060019054906101000a900460ff1661237f576040517f08c379a000000000000000000000000000000000000000000000000000000000815260040161237690613161565b60405180910390fd5b600061012d60006101000a81548160ff021916908315150217905550565b600060019054906101000a900460ff166123ec576040517f08c379a00000000000000000000000000000000000000000000000000000000081526004016123e390613161565b60405180910390fd5b6124006000801b6123fb611144565b612716565b6124317f9f2df0fed2c77648de5860a4cc508cd0818c85b8b8a1ab4ceeef8d981c8956a661242c611144565b612716565b6124627f65d7a28e3265b37a6474929f336521b332c1681b933f6cb9f3376673440d862a61245d611144565b612716565b5050565b60008260000182815481106124a4577f4e487b7100000000000000000000000000000000000000000000000000000000600052603260045260246000fd5b9060005260206000200154905092915050565b600081600001805490509050919050565b6124d3838383612724565b6124db610b07565b1561251b576040517f08c379a000000000000000000000000000000000000000000000000000000000815260040161251290613201565b60405180910390fd5b505050565b600061252c8383612729565b61258557826000018290806001815401808255809150506001900390600052602060002001600090919091909150558260000180549050836001016000848152602001908152602001600020819055506001905061258a565b600090505b92915050565b6000808360010160008481526020019081526020016000205490506000811461270a5760006001826125c29190613384565b90506000600186600001805490506125da9190613384565b9050818114612695576000866000018281548110612621577f4e487b7100000000000000000000000000000000000000000000000000000000600052603260045260246000fd5b906000526020600020015490508087600001848154811061266b577f4e487b7100000000000000000000000000000000000000000000000000000000600052603260045260246000fd5b90600052602060002001819055508387600101600083815260200190815260200160002081905550505b856000018054806126cf577f4e487b7100000000000000000000000000000000000000000000000000000000600052603160045260246000fd5b600190038181906000526020600020016000905590558560010160008681526020019081526020016000206000905560019350505050612710565b60009150505b92915050565b61272082826116c4565b5050565b505050565b600080836001016000848152602001908152602001600020541415905092915050565b828054612758906134af565b90600052602060002090601f01602090048101928261277a57600085556127c1565b82601f1061279357805160ff19168380011785556127c1565b828001600101855582156127c1579182015b828111156127c05782518255916020019190600101906127a5565b5b5090506127ce91906127d2565b5090565b5b808211156127eb5760008160009055506001016127d3565b5090565b60006128026127fd8461327c565b613257565b90508281526020810184848401111561281a57600080fd5b612825848285613443565b509392505050565b60008135905061283c81613b99565b92915050565b60008135905061285181613bb0565b92915050565b60008135905061286681613bc7565b92915050565b600082601f83011261287d57600080fd5b813561288d8482602086016127ef565b91505092915050565b6000813590506128a581613bde565b92915050565b6000602082840312156128bd57600080fd5b60006128cb8482850161282d565b91505092915050565b600080604083850312156128e757600080fd5b60006128f58582860161282d565b92505060206129068582860161282d565b9150509250929050565b60008060006060848603121561292557600080fd5b60006129338682870161282d565b93505060206129448682870161282d565b925050604061295586828701612896565b9150509250925092565b6000806040838503121561297257600080fd5b60006129808582860161282d565b925050602061299185828601612896565b9150509250929050565b6000602082840312156129ad57600080fd5b60006129bb84828501612842565b91505092915050565b600080604083850312156129d757600080fd5b60006129e585828601612842565b92505060206129f68582860161282d565b9150509250929050565b60008060408385031215612a1357600080fd5b6000612a2185828601612842565b9250506020612a3285828601612896565b9150509250929050565b600060208284031215612a4e57600080fd5b6000612a5c84828501612857565b91505092915050565b60008060408385031215612a7857600080fd5b600083013567ffffffffffffffff811115612a9257600080fd5b612a9e8582860161286c565b925050602083013567ffffffffffffffff811115612abb57600080fd5b612ac78582860161286c565b9150509250929050565b600060208284031215612ae357600080fd5b6000612af184828501612896565b91505092915050565b612b03816133b8565b82525050565b612b12816133ca565b82525050565b612b21816133d6565b82525050565b6000612b32826132ad565b612b3c81856132b8565b9350612b4c818560208601613452565b612b558161359f565b840191505092915050565b6000612b6b826132ad565b612b7581856132c9565b9350612b85818560208601613452565b80840191505092915050565b6000612b9e6020836132b8565b9150612ba9826135b0565b602082019050919050565b6000612bc16023836132b8565b9150612bcc826135d9565b604082019050919050565b6000612be46014836132b8565b9150612bef82613628565b602082019050919050565b6000612c076022836132b8565b9150612c1282613651565b604082019050919050565b6000612c2a6039836132b8565b9150612c35826136a0565b604082019050919050565b6000612c4d6022836132b8565b9150612c58826136ef565b604082019050919050565b6000612c70601d836132b8565b9150612c7b8261373e565b602082019050919050565b6000612c936026836132b8565b9150612c9e82613767565b604082019050919050565b6000612cb66010836132b8565b9150612cc1826137b6565b602082019050919050565b6000612cd9602e836132b8565b9150612ce4826137df565b604082019050919050565b6000612cfc6036836132b8565b9150612d078261382e565b604082019050919050565b6000612d1f6021836132b8565b9150612d2a8261387d565b604082019050919050565b6000612d426025836132b8565b9150612d4d826138cc565b604082019050919050565b6000612d656024836132b8565b9150612d708261391b565b604082019050919050565b6000612d886037836132b8565b9150612d938261396a565b604082019050919050565b6000612dab602b836132b8565b9150612db6826139b9565b604082019050919050565b6000612dce6017836132c9565b9150612dd982613a08565b601782019050919050565b6000612df1601d836132b8565b9150612dfc82613a31565b602082019050919050565b6000612e146025836132b8565b9150612e1f82613a5a565b604082019050919050565b6000612e376011836132c9565b9150612e4282613aa9565b601182019050919050565b6000612e5a602f836132b8565b9150612e6582613ad2565b604082019050919050565b6000612e7d601f836132b8565b9150612e8882613b21565b602082019050919050565b6000612ea0602a836132b8565b9150612eab82613b4a565b604082019050919050565b612ebf8161342c565b82525050565b612ece81613436565b82525050565b6000612edf82612dc1565b9150612eeb8285612b60565b9150612ef682612e2a565b9150612f028284612b60565b91508190509392505050565b6000602082019050612f236000830184612afa565b92915050565b6000602082019050612f3e6000830184612b09565b92915050565b6000602082019050612f596000830184612b18565b92915050565b60006020820190508181036000830152612f798184612b27565b905092915050565b60006020820190508181036000830152612f9a81612b91565b9050919050565b60006020820190508181036000830152612fba81612bb4565b9050919050565b60006020820190508181036000830152612fda81612bd7565b9050919050565b60006020820190508181036000830152612ffa81612bfa565b9050919050565b6000602082019050818103600083015261301a81612c1d565b9050919050565b6000602082019050818103600083015261303a81612c40565b9050919050565b6000602082019050818103600083015261305a81612c63565b9050919050565b6000602082019050818103600083015261307a81612c86565b9050919050565b6000602082019050818103600083015261309a81612ca9565b9050919050565b600060208201905081810360008301526130ba81612ccc565b9050919050565b600060208201905081810360008301526130da81612cef565b9050919050565b600060208201905081810360008301526130fa81612d12565b9050919050565b6000602082019050818103600083015261311a81612d35565b9050919050565b6000602082019050818103600083015261313a81612d58565b9050919050565b6000602082019050818103600083015261315a81612d7b565b9050919050565b6000602082019050818103600083015261317a81612d9e565b9050919050565b6000602082019050818103600083015261319a81612de4565b9050919050565b600060208201905081810360008301526131ba81612e07565b9050919050565b600060208201905081810360008301526131da81612e4d565b9050919050565b600060208201905081810360008301526131fa81612e70565b9050919050565b6000602082019050818103600083015261321a81612e93565b9050919050565b60006020820190506132366000830184612eb6565b92915050565b60006020820190506132516000830184612ec5565b92915050565b6000613261613272565b905061326d82826134e1565b919050565b6000604051905090565b600067ffffffffffffffff82111561329757613296613570565b5b6132a08261359f565b9050602081019050919050565b600081519050919050565b600082825260208201905092915050565b600081905092915050565b60006132df8261342c565b91506132ea8361342c565b9250827fffffffffffffffffffffffffffffffffffffffffffffffffffffffffffffffff0382111561331f5761331e613512565b5b828201905092915050565b60006133358261342c565b91506133408361342c565b9250817fffffffffffffffffffffffffffffffffffffffffffffffffffffffffffffffff048311821515161561337957613378613512565b5b828202905092915050565b600061338f8261342c565b915061339a8361342c565b9250828210156133ad576133ac613512565b5b828203905092915050565b60006133c38261340c565b9050919050565b60008115159050919050565b6000819050919050565b60007fffffffff0000000000000000000000000000000000000000000000000000000082169050919050565b600073ffffffffffffffffffffffffffffffffffffffff82169050919050565b6000819050919050565b600060ff82169050919050565b82818337600083830152505050565b60005b83811015613470578082015181840152602081019050613455565b8381111561347f576000848401525b50505050565b60006134908261342c565b915060008214156134a4576134a3613512565b5b600182039050919050565b600060028204905060018216806134c757607f821691505b602082108114156134db576134da613541565b5b50919050565b6134ea8261359f565b810181811067ffffffffffffffff8211171561350957613508613570565b5b80604052505050565b7f4e487b7100000000000000000000000000000000000000000000000000000000600052601160045260246000fd5b7f4e487b7100000000000000000000000000000000000000000000000000000000600052602260045260246000fd5b7f4e487b7100000000000000000000000000000000000000000000000000000000600052604160045260246000fd5b6000601f19601f8301169050919050565b7f537472696e67733a20686578206c656e67746820696e73756666696369656e74600082015250565b7f45524332303a207472616e7366657220746f20746865207a65726f206164647260008201527f6573730000000000000000000000000000000000000000000000000000000000602082015250565b7f5061757361626c653a206e6f7420706175736564000000000000000000000000600082015250565b7f45524332303a206275726e20616d6f756e7420657863656564732062616c616e60008201527f6365000000000000000000000000000000000000000000000000000000000000602082015250565b7f45524332305072657365744d696e7465725061757365723a206d75737420686160008201527f76652070617573657220726f6c6520746f20756e706175736500000000000000602082015250565b7f45524332303a20617070726f766520746f20746865207a65726f20616464726560008201527f7373000000000000000000000000000000000000000000000000000000000000602082015250565b7f45524332303a20696e73756666696369656e7420616c6c6f77616e6365000000600082015250565b7f45524332303a207472616e7366657220616d6f756e742065786365656473206260008201527f616c616e63650000000000000000000000000000000000000000000000000000602082015250565b7f5061757361626c653a2070617573656400000000000000000000000000000000600082015250565b7f496e697469616c697a61626c653a20636f6e747261637420697320616c72656160008201527f647920696e697469616c697a6564000000000000000000000000000000000000602082015250565b7f45524332305072657365744d696e7465725061757365723a206d75737420686160008201527f7665206d696e74657220726f6c6520746f206d696e7400000000000000000000602082015250565b7f45524332303a206275726e2066726f6d20746865207a65726f2061646472657360008201527f7300000000000000000000000000000000000000000000000000000000000000602082015250565b7f45524332303a207472616e736665722066726f6d20746865207a65726f20616460008201527f6472657373000000000000000000000000000000000000000000000000000000602082015250565b7f45524332303a20617070726f76652066726f6d20746865207a65726f2061646460008201527f7265737300000000000000000000000000000000000000000000000000000000602082015250565b7f45524332305072657365744d696e7465725061757365723a206d75737420686160008201527f76652070617573657220726f6c6520746f207061757365000000000000000000602082015250565b7f496e697469616c697a61626c653a20636f6e7472616374206973206e6f74206960008201527f6e697469616c697a696e67000000000000000000000000000000000000000000602082015250565b7f416363657373436f6e74726f6c3a206163636f756e7420000000000000000000600082015250565b7f4d657761546f6b656e3a20526561636820746f74616c20737570706c79000000600082015250565b7f45524332303a2064656372656173656420616c6c6f77616e63652062656c6f7760008201527f207a65726f000000000000000000000000000000000000000000000000000000602082015250565b7f206973206d697373696e6720726f6c6520000000000000000000000000000000600082015250565b7f416363657373436f6e74726f6c3a2063616e206f6e6c792072656e6f756e636560008201527f20726f6c657320666f722073656c660000000000000000000000000000000000602082015250565b7f45524332303a206d696e7420746f20746865207a65726f206164647265737300600082015250565b7f45524332305061757361626c653a20746f6b656e207472616e7366657220776860008201527f696c652070617573656400000000000000000000000000000000000000000000602082015250565b613ba2816133b8565b8114613bad57600080fd5b50565b613bb9816133d6565b8114613bc457600080fd5b50565b613bd0816133e0565b8114613bdb57600080fd5b50565b613be78161342c565b8114613bf257600080fd5b5056fea2646970667358221220ae73e999e2463fd8a2996f80361a4e260c7df974274142fdc337282e38b2985364736f6c63430008010033",
  "linkReferences": {},
  "deployedLinkReferences": {}
}