{
  "contractName": "NFT",
  "abi": [
    {
      "inputs": [],
      "stateMutability": "nonpayable",
      "type": "constructor"
    },
    {
      "anonymous": false,
      "inputs": [
        {
          "indexed": true,
          "internalType": "address",
          "name": "owner",
          "type": "address"
        },
        {
          "indexed": true,
          "internalType": "address",
          "name": "approved",
          "type": "address"
        },
        {
          "indexed": true,
          "internalType": "uint256",
          "name": "tokenId",
          "type": "uint256"
        }
      ],
      "name": "Approval",
      "type": "event"
    },
    {
      "anonymous": false,
      "inputs": [
        {
          "indexed": true,
          "internalType": "address",
          "name": "owner",
          "type": "address"
        },
        {
          "indexed": true,
          "internalType": "address",
          "name": "operator",
          "type": "address"
        },
        {
          "indexed": false,
          "internalType": "bool",
          "name": "approved",
          "type": "bool"
        }
      ],
      "name": "ApprovalForAll",
      "type": "event"
    },
    {
      "anonymous": false,
      "inputs": [
        {
          "indexed": true,
          "internalType": "address",
          "name": "previousOwner",
          "type": "address"
        },
        {
          "indexed": true,
          "internalType": "address",
          "name": "newOwner",
          "type": "address"
        }
      ],
      "name": "OwnershipTransferred",
      "type": "event"
    },
    {
      "anonymous": false,
      "inputs": [
        {
          "indexed": true,
          "internalType": "address",
          "name": "from",
          "type": "address"
        },
        {
          "indexed": true,
          "internalType": "address",
          "name": "to",
          "type": "address"
        },
        {
          "indexed": true,
          "internalType": "uint256",
          "name": "tokenId",
          "type": "uint256"
        }
      ],
      "name": "Transfer",
      "type": "event"
    },
    {
      "inputs": [
        {
          "internalType": "address",
          "name": "to",
          "type": "address"
        },
        {
          "internalType": "uint256",
          "name": "tokenId",
          "type": "uint256"
        }
      ],
      "name": "approve",
      "outputs": [],
      "stateMutability": "nonpayable",
      "type": "function"
    },
    {
      "inputs": [
        {
          "internalType": "address",
          "name": "owner",
          "type": "address"
        }
      ],
      "name": "balanceOf",
      "outputs": [
        {
          "internalType": "uint256",
          "name": "",
          "type": "uint256"
        }
      ],
      "stateMutability": "view",
      "type": "function",
      "constant": true
    },
    {
      "inputs": [
        {
          "internalType": "uint256",
          "name": "tokenId",
          "type": "uint256"
        }
      ],
      "name": "getApproved",
      "outputs": [
        {
          "internalType": "address",
          "name": "",
          "type": "address"
        }
      ],
      "stateMutability": "view",
      "type": "function",
      "constant": true
    },
    {
      "inputs": [
        {
          "internalType": "address",
          "name": "owner",
          "type": "address"
        },
        {
          "internalType": "address",
          "name": "operator",
          "type": "address"
        }
      ],
      "name": "isApprovedForAll",
      "outputs": [
        {
          "internalType": "bool",
          "name": "",
          "type": "bool"
        }
      ],
      "stateMutability": "view",
      "type": "function",
      "constant": true
    },
    {
      "inputs": [],
      "name": "name",
      "outputs": [
        {
          "internalType": "string",
          "name": "",
          "type": "string"
        }
      ],
      "stateMutability": "view",
      "type": "function",
      "constant": true
    },
    {
      "inputs": [],
      "name": "owner",
      "outputs": [
        {
          "internalType": "address",
          "name": "",
          "type": "address"
        }
      ],
      "stateMutability": "view",
      "type": "function",
      "constant": true
    },
    {
      "inputs": [
        {
          "internalType": "uint256",
          "name": "tokenId",
          "type": "uint256"
        }
      ],
      "name": "ownerOf",
      "outputs": [
        {
          "internalType": "address",
          "name": "",
          "type": "address"
        }
      ],
      "stateMutability": "view",
      "type": "function",
      "constant": true
    },
    {
      "inputs": [],
      "name": "renounceOwnership",
      "outputs": [],
      "stateMutability": "nonpayable",
      "type": "function"
    },
    {
      "inputs": [
        {
          "internalType": "address",
          "name": "from",
          "type": "address"
        },
        {
          "internalType": "address",
          "name": "to",
          "type": "address"
        },
        {
          "internalType": "uint256",
          "name": "tokenId",
          "type": "uint256"
        }
      ],
      "name": "safeTransferFrom",
      "outputs": [],
      "stateMutability": "nonpayable",
      "type": "function"
    },
    {
      "inputs": [
        {
          "internalType": "address",
          "name": "from",
          "type": "address"
        },
        {
          "internalType": "address",
          "name": "to",
          "type": "address"
        },
        {
          "internalType": "uint256",
          "name": "tokenId",
          "type": "uint256"
        },
        {
          "internalType": "bytes",
          "name": "_data",
          "type": "bytes"
        }
      ],
      "name": "safeTransferFrom",
      "outputs": [],
      "stateMutability": "nonpayable",
      "type": "function"
    },
    {
      "inputs": [
        {
          "internalType": "address",
          "name": "operator",
          "type": "address"
        },
        {
          "internalType": "bool",
          "name": "approved",
          "type": "bool"
        }
      ],
      "name": "setApprovalForAll",
      "outputs": [],
      "stateMutability": "nonpayable",
      "type": "function"
    },
    {
      "inputs": [
        {
          "internalType": "bytes4",
          "name": "interfaceId",
          "type": "bytes4"
        }
      ],
      "name": "supportsInterface",
      "outputs": [
        {
          "internalType": "bool",
          "name": "",
          "type": "bool"
        }
      ],
      "stateMutability": "view",
      "type": "function",
      "constant": true
    },
    {
      "inputs": [],
      "name": "symbol",
      "outputs": [
        {
          "internalType": "string",
          "name": "",
          "type": "string"
        }
      ],
      "stateMutability": "view",
      "type": "function",
      "constant": true
    },
    {
      "inputs": [
        {
          "internalType": "uint256",
          "name": "index",
          "type": "uint256"
        }
      ],
      "name": "tokenByIndex",
      "outputs": [
        {
          "internalType": "uint256",
          "name": "",
          "type": "uint256"
        }
      ],
      "stateMutability": "view",
      "type": "function",
      "constant": true
    },
    {
      "inputs": [
        {
          "internalType": "address",
          "name": "owner",
          "type": "address"
        },
        {
          "internalType": "uint256",
          "name": "index",
          "type": "uint256"
        }
      ],
      "name": "tokenOfOwnerByIndex",
      "outputs": [
        {
          "internalType": "uint256",
          "name": "",
          "type": "uint256"
        }
      ],
      "stateMutability": "view",
      "type": "function",
      "constant": true
    },
    {
      "inputs": [
        {
          "internalType": "uint256",
          "name": "tokenId",
          "type": "uint256"
        }
      ],
      "name": "tokenURI",
      "outputs": [
        {
          "internalType": "string",
          "name": "",
          "type": "string"
        }
      ],
      "stateMutability": "view",
      "type": "function",
      "constant": true
    },
    {
      "inputs": [],
      "name": "totalSupply",
      "outputs": [
        {
          "internalType": "uint256",
          "name": "",
          "type": "uint256"
        }
      ],
      "stateMutability": "view",
      "type": "function",
      "constant": true
    },
    {
      "inputs": [
        {
          "internalType": "address",
          "name": "from",
          "type": "address"
        },
        {
          "internalType": "address",
          "name": "to",
          "type": "address"
        },
        {
          "internalType": "uint256",
          "name": "tokenId",
          "type": "uint256"
        }
      ],
      "name": "transferFrom",
      "outputs": [],
      "stateMutability": "nonpayable",
      "type": "function"
    },
    {
      "inputs": [
        {
          "internalType": "address",
          "name": "newOwner",
          "type": "address"
        }
      ],
      "name": "transferOwnership",
      "outputs": [],
      "stateMutability": "nonpayable",
      "type": "function"
    },
    {
      "inputs": [
        {
          "internalType": "string",
          "name": "heroId",
          "type": "string"
        }
      ],
      "name": "mintNft",
      "outputs": [],
      "stateMutability": "nonpayable",
      "type": "function"
    },
    {
      "inputs": [
        {
          "internalType": "uint256",
          "name": "tokenId",
          "type": "uint256"
        }
      ],
      "name": "getHeroByTokenId",
      "outputs": [
        {
          "internalType": "string",
          "name": "",
          "type": "string"
        }
      ],
      "stateMutability": "view",
      "type": "function",
      "constant": true
    },
    {
      "inputs": [],
      "name": "withdraw",
      "outputs": [],
      "stateMutability": "nonpayable",
      "type": "function"
    }
  ],
  "bytecode": "0x60806040523480156200001157600080fd5b506040518060400160405280600981526020017f4d6574617272696f7200000000000000000000000000000000000000000000008152506040518060400160405280600981526020017f4d6574617272696f720000000000000000000000000000000000000000000000815250816000908051906020019062000096929190620001a6565b508060019080519060200190620000af929190620001a6565b505050620000d2620000c6620000d860201b60201c565b620000e060201b60201c565b620002bb565b600033905090565b6000600a60009054906101000a900473ffffffffffffffffffffffffffffffffffffffff16905081600a60006101000a81548173ffffffffffffffffffffffffffffffffffffffff021916908373ffffffffffffffffffffffffffffffffffffffff1602179055508173ffffffffffffffffffffffffffffffffffffffff168173ffffffffffffffffffffffffffffffffffffffff167f8be0079c531659141344cd1fd0a4f28419497f9722a3daafe3b4186f6b6457e060405160405180910390a35050565b828054620001b49062000285565b90600052602060002090601f016020900481019282620001d8576000855562000224565b82601f10620001f357805160ff191683800117855562000224565b8280016001018555821562000224579182015b828111156200022357825182559160200191906001019062000206565b5b50905062000233919062000237565b5090565b5b808211156200025257600081600090555060010162000238565b5090565b7f4e487b7100000000000000000000000000000000000000000000000000000000600052602260045260246000fd5b600060028204905060018216806200029e57607f821691505b60208210811415620002b557620002b462000256565b5b50919050565b61364a80620002cb6000396000f3fe608060405234801561001057600080fd5b50600436106101425760003560e01c806370a08231116100b8578063a22cb4651161007c578063a22cb46514610377578063b88d4fde14610393578063c87b56dd146103af578063da86f4a9146103df578063e985e9c5146103fb578063f2fde38b1461042b57610142565b806370a08231146102d1578063715018a6146103015780638da5cb5b1461030b57806395d89b41146103295780639a08ee3b1461034757610142565b806323b872dd1161010a57806323b872dd146101ff5780632f745c591461021b5780633ccfd60b1461024b57806342842e0e146102555780634f6ccce7146102715780636352211e146102a157610142565b806301ffc9a71461014757806306fdde0314610177578063081812fc14610195578063095ea7b3146101c557806318160ddd146101e1575b600080fd5b610161600480360381019061015c9190612292565b610447565b60405161016e91906122da565b60405180910390f35b61017f6104c1565b60405161018c919061238e565b60405180910390f35b6101af60048036038101906101aa91906123e6565b610553565b6040516101bc9190612454565b60405180910390f35b6101df60048036038101906101da919061249b565b6105d8565b005b6101e96106f0565b6040516101f691906124ea565b60405180910390f35b61021960048036038101906102149190612505565b6106fd565b005b6102356004803603810190610230919061249b565b61075d565b60405161024291906124ea565b60405180910390f35b610253610802565b005b61026f600480360381019061026a9190612505565b6108c7565b005b61028b600480360381019061028691906123e6565b6108e7565b60405161029891906124ea565b60405180910390f35b6102bb60048036038101906102b691906123e6565b610958565b6040516102c89190612454565b60405180910390f35b6102eb60048036038101906102e69190612558565b610a0a565b6040516102f891906124ea565b60405180910390f35b610309610ac2565b005b610313610b4a565b6040516103209190612454565b60405180910390f35b610331610b74565b60405161033e919061238e565b60405180910390f35b610361600480360381019061035c91906123e6565b610c06565b60405161036e919061238e565b60405180910390f35b610391600480360381019061038c91906125b1565b610cab565b005b6103ad60048036038101906103a89190612726565b610cc1565b005b6103c960048036038101906103c491906123e6565b610d23565b6040516103d6919061238e565b60405180910390f35b6103f960048036038101906103f4919061284a565b610dca565b005b61041560048036038101906104109190612893565b610e18565b60405161042291906122da565b60405180910390f35b61044560048036038101906104409190612558565b610eac565b005b60007f780e9d63000000000000000000000000000000000000000000000000000000007bffffffffffffffffffffffffffffffffffffffffffffffffffffffff1916827bffffffffffffffffffffffffffffffffffffffffffffffffffffffff191614806104ba57506104b982610fa4565b5b9050919050565b6060600080546104d090612902565b80601f01602080910402602001604051908101604052809291908181526020018280546104fc90612902565b80156105495780601f1061051e57610100808354040283529160200191610549565b820191906000526020600020905b81548152906001019060200180831161052c57829003601f168201915b5050505050905090565b600061055e82611086565b61059d576040517f08c379a0000000000000000000000000000000000000000000000000000000008152600401610594906129a6565b60405180910390fd5b6004600083815260200190815260200160002060009054906101000a900473ffffffffffffffffffffffffffffffffffffffff169050919050565b60006105e382610958565b90508073ffffffffffffffffffffffffffffffffffffffff168373ffffffffffffffffffffffffffffffffffffffff161415610654576040517f08c379a000000000000000000000000000000000000000000000000000000000815260040161064b90612a38565b60405180910390fd5b8073ffffffffffffffffffffffffffffffffffffffff166106736110f2565b73ffffffffffffffffffffffffffffffffffffffff1614806106a257506106a18161069c6110f2565b610e18565b5b6106e1576040517f08c379a00000000000000000000000000000000000000000000000000000000081526004016106d890612aca565b60405180910390fd5b6106eb83836110fa565b505050565b6000600880549050905090565b61070e6107086110f2565b826111b3565b61074d576040517f08c379a000000000000000000000000000000000000000000000000000000000815260040161074490612b5c565b60405180910390fd5b610758838383611291565b505050565b600061076883610a0a565b82106107a9576040517f08c379a00000000000000000000000000000000000000000000000000000000081526004016107a090612bee565b60405180910390fd5b600660008473ffffffffffffffffffffffffffffffffffffffff1673ffffffffffffffffffffffffffffffffffffffff168152602001908152602001600020600083815260200190815260200160002054905092915050565b61080a6110f2565b73ffffffffffffffffffffffffffffffffffffffff16610828610b4a565b73ffffffffffffffffffffffffffffffffffffffff161461087e576040517f08c379a000000000000000000000000000000000000000000000000000000000815260040161087590612c5a565b60405180910390fd5b3373ffffffffffffffffffffffffffffffffffffffff166108fc479081150290604051600060405180830381858888f193505050501580156108c4573d6000803e3d6000fd5b50565b6108e283838360405180602001604052806000815250610cc1565b505050565b60006108f16106f0565b8210610932576040517f08c379a000000000000000000000000000000000000000000000000000000000815260040161092990612cec565b60405180910390fd5b6008828154811061094657610945612d0c565b5b90600052602060002001549050919050565b6000806002600084815260200190815260200160002060009054906101000a900473ffffffffffffffffffffffffffffffffffffffff169050600073ffffffffffffffffffffffffffffffffffffffff168173ffffffffffffffffffffffffffffffffffffffff161415610a01576040517f08c379a00000000000000000000000000000000000000000000000000000000081526004016109f890612dad565b60405180910390fd5b80915050919050565b60008073ffffffffffffffffffffffffffffffffffffffff168273ffffffffffffffffffffffffffffffffffffffff161415610a7b576040517f08c379a0000000000000000000000000000000000000000000000000000000008152600401610a7290612e3f565b60405180910390fd5b600360008373ffffffffffffffffffffffffffffffffffffffff1673ffffffffffffffffffffffffffffffffffffffff168152602001908152602001600020549050919050565b610aca6110f2565b73ffffffffffffffffffffffffffffffffffffffff16610ae8610b4a565b73ffffffffffffffffffffffffffffffffffffffff1614610b3e576040517f08c379a0000000000000000000000000000000000000000000000000000000008152600401610b3590612c5a565b60405180910390fd5b610b4860006114ed565b565b6000600a60009054906101000a900473ffffffffffffffffffffffffffffffffffffffff16905090565b606060018054610b8390612902565b80601f0160208091040260200160405190810160405280929190818152602001828054610baf90612902565b8015610bfc5780601f10610bd157610100808354040283529160200191610bfc565b820191906000526020600020905b815481529060010190602001808311610bdf57829003601f168201915b5050505050905090565b6060600c60008381526020019081526020016000208054610c2690612902565b80601f0160208091040260200160405190810160405280929190818152602001828054610c5290612902565b8015610c9f5780601f10610c7457610100808354040283529160200191610c9f565b820191906000526020600020905b815481529060010190602001808311610c8257829003601f168201915b50505050509050919050565b610cbd610cb66110f2565b83836115b3565b5050565b610cd2610ccc6110f2565b836111b3565b610d11576040517f08c379a0000000000000000000000000000000000000000000000000000000008152600401610d0890612b5c565b60405180910390fd5b610d1d84848484611720565b50505050565b6060610d2e82611086565b610d6d576040517f08c379a0000000000000000000000000000000000000000000000000000000008152600401610d6490612ed1565b60405180910390fd5b6000610d7761177c565b90506000815111610d975760405180602001604052806000815250610dc2565b80610da184611793565b604051602001610db2929190612f2d565b6040516020818303038152906040525b915050919050565b610dd4600b6118f4565b6000610de0600b61190a565b9050610dec3382611918565b81600c60008381526020019081526020016000209080519060200190610e13929190612183565b505050565b6000600560008473ffffffffffffffffffffffffffffffffffffffff1673ffffffffffffffffffffffffffffffffffffffff16815260200190815260200160002060008373ffffffffffffffffffffffffffffffffffffffff1673ffffffffffffffffffffffffffffffffffffffff16815260200190815260200160002060009054906101000a900460ff16905092915050565b610eb46110f2565b73ffffffffffffffffffffffffffffffffffffffff16610ed2610b4a565b73ffffffffffffffffffffffffffffffffffffffff1614610f28576040517f08c379a0000000000000000000000000000000000000000000000000000000008152600401610f1f90612c5a565b60405180910390fd5b600073ffffffffffffffffffffffffffffffffffffffff168173ffffffffffffffffffffffffffffffffffffffff161415610f98576040517f08c379a0000000000000000000000000000000000000000000000000000000008152600401610f8f90612fc3565b60405180910390fd5b610fa1816114ed565b50565b60007f80ac58cd000000000000000000000000000000000000000000000000000000007bffffffffffffffffffffffffffffffffffffffffffffffffffffffff1916827bffffffffffffffffffffffffffffffffffffffffffffffffffffffff1916148061106f57507f5b5e139f000000000000000000000000000000000000000000000000000000007bffffffffffffffffffffffffffffffffffffffffffffffffffffffff1916827bffffffffffffffffffffffffffffffffffffffffffffffffffffffff1916145b8061107f575061107e82611936565b5b9050919050565b60008073ffffffffffffffffffffffffffffffffffffffff166002600084815260200190815260200160002060009054906101000a900473ffffffffffffffffffffffffffffffffffffffff1673ffffffffffffffffffffffffffffffffffffffff1614159050919050565b600033905090565b816004600083815260200190815260200160002060006101000a81548173ffffffffffffffffffffffffffffffffffffffff021916908373ffffffffffffffffffffffffffffffffffffffff160217905550808273ffffffffffffffffffffffffffffffffffffffff1661116d83610958565b73ffffffffffffffffffffffffffffffffffffffff167f8c5be1e5ebec7d5bd14f71427d1e84f3dd0314c0f7b2291e5b200ac8c7c3b92560405160405180910390a45050565b60006111be82611086565b6111fd576040517f08c379a00000000000000000000000000000000000000000000000000000000081526004016111f490613055565b60405180910390fd5b600061120883610958565b90508073ffffffffffffffffffffffffffffffffffffffff168473ffffffffffffffffffffffffffffffffffffffff16148061127757508373ffffffffffffffffffffffffffffffffffffffff1661125f84610553565b73ffffffffffffffffffffffffffffffffffffffff16145b8061128857506112878185610e18565b5b91505092915050565b8273ffffffffffffffffffffffffffffffffffffffff166112b182610958565b73ffffffffffffffffffffffffffffffffffffffff1614611307576040517f08c379a00000000000000000000000000000000000000000000000000000000081526004016112fe906130e7565b60405180910390fd5b600073ffffffffffffffffffffffffffffffffffffffff168273ffffffffffffffffffffffffffffffffffffffff161415611377576040517f08c379a000000000000000000000000000000000000000000000000000000000815260040161136e90613179565b60405180910390fd5b6113828383836119a0565b61138d6000826110fa565b6001600360008573ffffffffffffffffffffffffffffffffffffffff1673ffffffffffffffffffffffffffffffffffffffff16815260200190815260200160002060008282546113dd91906131c8565b925050819055506001600360008473ffffffffffffffffffffffffffffffffffffffff1673ffffffffffffffffffffffffffffffffffffffff168152602001908152602001600020600082825461143491906131fc565b92505081905550816002600083815260200190815260200160002060006101000a81548173ffffffffffffffffffffffffffffffffffffffff021916908373ffffffffffffffffffffffffffffffffffffffff160217905550808273ffffffffffffffffffffffffffffffffffffffff168473ffffffffffffffffffffffffffffffffffffffff167fddf252ad1be2c89b69c2b068fc378daa952ba7f163c4a11628f55a4df523b3ef60405160405180910390a4505050565b6000600a60009054906101000a900473ffffffffffffffffffffffffffffffffffffffff16905081600a60006101000a81548173ffffffffffffffffffffffffffffffffffffffff021916908373ffffffffffffffffffffffffffffffffffffffff1602179055508173ffffffffffffffffffffffffffffffffffffffff168173ffffffffffffffffffffffffffffffffffffffff167f8be0079c531659141344cd1fd0a4f28419497f9722a3daafe3b4186f6b6457e060405160405180910390a35050565b8173ffffffffffffffffffffffffffffffffffffffff168373ffffffffffffffffffffffffffffffffffffffff161415611622576040517f08c379a00000000000000000000000000000000000000000000000000000000081526004016116199061329e565b60405180910390fd5b80600560008573ffffffffffffffffffffffffffffffffffffffff1673ffffffffffffffffffffffffffffffffffffffff16815260200190815260200160002060008473ffffffffffffffffffffffffffffffffffffffff1673ffffffffffffffffffffffffffffffffffffffff16815260200190815260200160002060006101000a81548160ff0219169083151502179055508173ffffffffffffffffffffffffffffffffffffffff168373ffffffffffffffffffffffffffffffffffffffff167f17307eab39ab6107e8899845ad3d59bd9653f200f220920489ca2b5937696c318360405161171391906122da565b60405180910390a3505050565b61172b848484611291565b61173784848484611ab4565b611776576040517f08c379a000000000000000000000000000000000000000000000000000000000815260040161176d90613330565b60405180910390fd5b50505050565b606060405180602001604052806000815250905090565b606060008214156117db576040518060400160405280600181526020017f300000000000000000000000000000000000000000000000000000000000000081525090506118ef565b600082905060005b6000821461180d5780806117f690613350565b915050600a8261180691906133c8565b91506117e3565b60008167ffffffffffffffff811115611829576118286125fb565b5b6040519080825280601f01601f19166020018201604052801561185b5781602001600182028036833780820191505090505b5090505b600085146118e85760018261187491906131c8565b9150600a8561188391906133f9565b603061188f91906131fc565b60f81b8183815181106118a5576118a4612d0c565b5b60200101907effffffffffffffffffffffffffffffffffffffffffffffffffffffffffffff1916908160001a905350600a856118e191906133c8565b945061185f565b8093505050505b919050565b6001816000016000828254019250508190555050565b600081600001549050919050565b611932828260405180602001604052806000815250611c3c565b5050565b60007f01ffc9a7000000000000000000000000000000000000000000000000000000007bffffffffffffffffffffffffffffffffffffffffffffffffffffffff1916827bffffffffffffffffffffffffffffffffffffffffffffffffffffffff1916149050919050565b6119ab838383611c97565b600073ffffffffffffffffffffffffffffffffffffffff168373ffffffffffffffffffffffffffffffffffffffff1614156119ee576119e981611c9c565b611a2d565b8173ffffffffffffffffffffffffffffffffffffffff168373ffffffffffffffffffffffffffffffffffffffff1614611a2c57611a2b8382611ce5565b5b5b600073ffffffffffffffffffffffffffffffffffffffff168273ffffffffffffffffffffffffffffffffffffffff161415611a7057611a6b81611e52565b611aaf565b8273ffffffffffffffffffffffffffffffffffffffff168273ffffffffffffffffffffffffffffffffffffffff1614611aae57611aad8282611f23565b5b5b505050565b6000611ad58473ffffffffffffffffffffffffffffffffffffffff16611fa2565b15611c2f578373ffffffffffffffffffffffffffffffffffffffff1663150b7a02611afe6110f2565b8786866040518563ffffffff1660e01b8152600401611b20949392919061347f565b6020604051808303816000875af1925050508015611b5c57506040513d601f19601f82011682018060405250810190611b5991906134e0565b60015b611bdf573d8060008114611b8c576040519150601f19603f3d011682016040523d82523d6000602084013e611b91565b606091505b50600081511415611bd7576040517f08c379a0000000000000000000000000000000000000000000000000000000008152600401611bce90613330565b60405180910390fd5b805181602001fd5b63150b7a0260e01b7bffffffffffffffffffffffffffffffffffffffffffffffffffffffff1916817bffffffffffffffffffffffffffffffffffffffffffffffffffffffff191614915050611c34565b600190505b949350505050565b611c468383611fb5565b611c536000848484611ab4565b611c92576040517f08c379a0000000000000000000000000000000000000000000000000000000008152600401611c8990613330565b60405180910390fd5b505050565b505050565b6008805490506009600083815260200190815260200160002081905550600881908060018154018082558091505060019003906000526020600020016000909190919091505550565b60006001611cf284610a0a565b611cfc91906131c8565b9050600060076000848152602001908152602001600020549050818114611de1576000600660008673ffffffffffffffffffffffffffffffffffffffff1673ffffffffffffffffffffffffffffffffffffffff168152602001908152602001600020600084815260200190815260200160002054905080600660008773ffffffffffffffffffffffffffffffffffffffff1673ffffffffffffffffffffffffffffffffffffffff168152602001908152602001600020600084815260200190815260200160002081905550816007600083815260200190815260200160002081905550505b6007600084815260200190815260200160002060009055600660008573ffffffffffffffffffffffffffffffffffffffff1673ffffffffffffffffffffffffffffffffffffffff16815260200190815260200160002060008381526020019081526020016000206000905550505050565b60006001600880549050611e6691906131c8565b9050600060096000848152602001908152602001600020549050600060088381548110611e9657611e95612d0c565b5b906000526020600020015490508060088381548110611eb857611eb7612d0c565b5b906000526020600020018190555081600960008381526020019081526020016000208190555060096000858152602001908152602001600020600090556008805480611f0757611f0661350d565b5b6001900381819060005260206000200160009055905550505050565b6000611f2e83610a0a565b905081600660008573ffffffffffffffffffffffffffffffffffffffff1673ffffffffffffffffffffffffffffffffffffffff168152602001908152602001600020600083815260200190815260200160002081905550806007600084815260200190815260200160002081905550505050565b600080823b905060008111915050919050565b600073ffffffffffffffffffffffffffffffffffffffff168273ffffffffffffffffffffffffffffffffffffffff161415612025576040517f08c379a000000000000000000000000000000000000000000000000000000000815260040161201c90613588565b60405180910390fd5b61202e81611086565b1561206e576040517f08c379a0000000000000000000000000000000000000000000000000000000008152600401612065906135f4565b60405180910390fd5b61207a600083836119a0565b6001600360008473ffffffffffffffffffffffffffffffffffffffff1673ffffffffffffffffffffffffffffffffffffffff16815260200190815260200160002060008282546120ca91906131fc565b92505081905550816002600083815260200190815260200160002060006101000a81548173ffffffffffffffffffffffffffffffffffffffff021916908373ffffffffffffffffffffffffffffffffffffffff160217905550808273ffffffffffffffffffffffffffffffffffffffff16600073ffffffffffffffffffffffffffffffffffffffff167fddf252ad1be2c89b69c2b068fc378daa952ba7f163c4a11628f55a4df523b3ef60405160405180910390a45050565b82805461218f90612902565b90600052602060002090601f0160209004810192826121b157600085556121f8565b82601f106121ca57805160ff19168380011785556121f8565b828001600101855582156121f8579182015b828111156121f75782518255916020019190600101906121dc565b5b5090506122059190612209565b5090565b5b8082111561222257600081600090555060010161220a565b5090565b6000604051905090565b600080fd5b600080fd5b60007fffffffff0000000000000000000000000000000000000000000000000000000082169050919050565b61226f8161223a565b811461227a57600080fd5b50565b60008135905061228c81612266565b92915050565b6000602082840312156122a8576122a7612230565b5b60006122b68482850161227d565b91505092915050565b60008115159050919050565b6122d4816122bf565b82525050565b60006020820190506122ef60008301846122cb565b92915050565b600081519050919050565b600082825260208201905092915050565b60005b8381101561232f578082015181840152602081019050612314565b8381111561233e576000848401525b50505050565b6000601f19601f8301169050919050565b6000612360826122f5565b61236a8185612300565b935061237a818560208601612311565b61238381612344565b840191505092915050565b600060208201905081810360008301526123a88184612355565b905092915050565b6000819050919050565b6123c3816123b0565b81146123ce57600080fd5b50565b6000813590506123e0816123ba565b92915050565b6000602082840312156123fc576123fb612230565b5b600061240a848285016123d1565b91505092915050565b600073ffffffffffffffffffffffffffffffffffffffff82169050919050565b600061243e82612413565b9050919050565b61244e81612433565b82525050565b60006020820190506124696000830184612445565b92915050565b61247881612433565b811461248357600080fd5b50565b6000813590506124958161246f565b92915050565b600080604083850312156124b2576124b1612230565b5b60006124c085828601612486565b92505060206124d1858286016123d1565b9150509250929050565b6124e4816123b0565b82525050565b60006020820190506124ff60008301846124db565b92915050565b60008060006060848603121561251e5761251d612230565b5b600061252c86828701612486565b935050602061253d86828701612486565b925050604061254e868287016123d1565b9150509250925092565b60006020828403121561256e5761256d612230565b5b600061257c84828501612486565b91505092915050565b61258e816122bf565b811461259957600080fd5b50565b6000813590506125ab81612585565b92915050565b600080604083850312156125c8576125c7612230565b5b60006125d685828601612486565b92505060206125e78582860161259c565b9150509250929050565b600080fd5b600080fd5b7f4e487b7100000000000000000000000000000000000000000000000000000000600052604160045260246000fd5b61263382612344565b810181811067ffffffffffffffff82111715612652576126516125fb565b5b80604052505050565b6000612665612226565b9050612671828261262a565b919050565b600067ffffffffffffffff821115612691576126906125fb565b5b61269a82612344565b9050602081019050919050565b82818337600083830152505050565b60006126c96126c484612676565b61265b565b9050828152602081018484840111156126e5576126e46125f6565b5b6126f08482856126a7565b509392505050565b600082601f83011261270d5761270c6125f1565b5b813561271d8482602086016126b6565b91505092915050565b600080600080608085870312156127405761273f612230565b5b600061274e87828801612486565b945050602061275f87828801612486565b9350506040612770878288016123d1565b925050606085013567ffffffffffffffff81111561279157612790612235565b5b61279d878288016126f8565b91505092959194509250565b600067ffffffffffffffff8211156127c4576127c36125fb565b5b6127cd82612344565b9050602081019050919050565b60006127ed6127e8846127a9565b61265b565b905082815260208101848484011115612809576128086125f6565b5b6128148482856126a7565b509392505050565b600082601f830112612831576128306125f1565b5b81356128418482602086016127da565b91505092915050565b6000602082840312156128605761285f612230565b5b600082013567ffffffffffffffff81111561287e5761287d612235565b5b61288a8482850161281c565b91505092915050565b600080604083850312156128aa576128a9612230565b5b60006128b885828601612486565b92505060206128c985828601612486565b9150509250929050565b7f4e487b7100000000000000000000000000000000000000000000000000000000600052602260045260246000fd5b6000600282049050600182168061291a57607f821691505b6020821081141561292e5761292d6128d3565b5b50919050565b7f4552433732313a20617070726f76656420717565727920666f72206e6f6e657860008201527f697374656e7420746f6b656e0000000000000000000000000000000000000000602082015250565b6000612990602c83612300565b915061299b82612934565b604082019050919050565b600060208201905081810360008301526129bf81612983565b9050919050565b7f4552433732313a20617070726f76616c20746f2063757272656e74206f776e6560008201527f7200000000000000000000000000000000000000000000000000000000000000602082015250565b6000612a22602183612300565b9150612a2d826129c6565b604082019050919050565b60006020820190508181036000830152612a5181612a15565b9050919050565b7f4552433732313a20617070726f76652063616c6c6572206973206e6f74206f7760008201527f6e6572206e6f7220617070726f76656420666f7220616c6c0000000000000000602082015250565b6000612ab4603883612300565b9150612abf82612a58565b604082019050919050565b60006020820190508181036000830152612ae381612aa7565b9050919050565b7f4552433732313a207472616e736665722063616c6c6572206973206e6f74206f60008201527f776e6572206e6f7220617070726f766564000000000000000000000000000000602082015250565b6000612b46603183612300565b9150612b5182612aea565b604082019050919050565b60006020820190508181036000830152612b7581612b39565b9050919050565b7f455243373231456e756d657261626c653a206f776e657220696e646578206f7560008201527f74206f6620626f756e6473000000000000000000000000000000000000000000602082015250565b6000612bd8602b83612300565b9150612be382612b7c565b604082019050919050565b60006020820190508181036000830152612c0781612bcb565b9050919050565b7f4f776e61626c653a2063616c6c6572206973206e6f7420746865206f776e6572600082015250565b6000612c44602083612300565b9150612c4f82612c0e565b602082019050919050565b60006020820190508181036000830152612c7381612c37565b9050919050565b7f455243373231456e756d657261626c653a20676c6f62616c20696e646578206f60008201527f7574206f6620626f756e64730000000000000000000000000000000000000000602082015250565b6000612cd6602c83612300565b9150612ce182612c7a565b604082019050919050565b60006020820190508181036000830152612d0581612cc9565b9050919050565b7f4e487b7100000000000000000000000000000000000000000000000000000000600052603260045260246000fd5b7f4552433732313a206f776e657220717565727920666f72206e6f6e657869737460008201527f656e7420746f6b656e0000000000000000000000000000000000000000000000602082015250565b6000612d97602983612300565b9150612da282612d3b565b604082019050919050565b60006020820190508181036000830152612dc681612d8a565b9050919050565b7f4552433732313a2062616c616e636520717565727920666f7220746865207a6560008201527f726f206164647265737300000000000000000000000000000000000000000000602082015250565b6000612e29602a83612300565b9150612e3482612dcd565b604082019050919050565b60006020820190508181036000830152612e5881612e1c565b9050919050565b7f4552433732314d657461646174613a2055524920717565727920666f72206e6f60008201527f6e6578697374656e7420746f6b656e0000000000000000000000000000000000602082015250565b6000612ebb602f83612300565b9150612ec682612e5f565b604082019050919050565b60006020820190508181036000830152612eea81612eae565b9050919050565b600081905092915050565b6000612f07826122f5565b612f118185612ef1565b9350612f21818560208601612311565b80840191505092915050565b6000612f398285612efc565b9150612f458284612efc565b91508190509392505050565b7f4f776e61626c653a206e6577206f776e657220697320746865207a65726f206160008201527f6464726573730000000000000000000000000000000000000000000000000000602082015250565b6000612fad602683612300565b9150612fb882612f51565b604082019050919050565b60006020820190508181036000830152612fdc81612fa0565b9050919050565b7f4552433732313a206f70657261746f7220717565727920666f72206e6f6e657860008201527f697374656e7420746f6b656e0000000000000000000000000000000000000000602082015250565b600061303f602c83612300565b915061304a82612fe3565b604082019050919050565b6000602082019050818103600083015261306e81613032565b9050919050565b7f4552433732313a207472616e73666572206f6620746f6b656e2074686174206960008201527f73206e6f74206f776e0000000000000000000000000000000000000000000000602082015250565b60006130d1602983612300565b91506130dc82613075565b604082019050919050565b60006020820190508181036000830152613100816130c4565b9050919050565b7f4552433732313a207472616e7366657220746f20746865207a65726f2061646460008201527f7265737300000000000000000000000000000000000000000000000000000000602082015250565b6000613163602483612300565b915061316e82613107565b604082019050919050565b6000602082019050818103600083015261319281613156565b9050919050565b7f4e487b7100000000000000000000000000000000000000000000000000000000600052601160045260246000fd5b60006131d3826123b0565b91506131de836123b0565b9250828210156131f1576131f0613199565b5b828203905092915050565b6000613207826123b0565b9150613212836123b0565b9250827fffffffffffffffffffffffffffffffffffffffffffffffffffffffffffffffff0382111561324757613246613199565b5b828201905092915050565b7f4552433732313a20617070726f766520746f2063616c6c657200000000000000600082015250565b6000613288601983612300565b915061329382613252565b602082019050919050565b600060208201905081810360008301526132b78161327b565b9050919050565b7f4552433732313a207472616e7366657220746f206e6f6e20455243373231526560008201527f63656976657220696d706c656d656e7465720000000000000000000000000000602082015250565b600061331a603283612300565b9150613325826132be565b604082019050919050565b600060208201905081810360008301526133498161330d565b9050919050565b600061335b826123b0565b91507fffffffffffffffffffffffffffffffffffffffffffffffffffffffffffffffff82141561338e5761338d613199565b5b600182019050919050565b7f4e487b7100000000000000000000000000000000000000000000000000000000600052601260045260246000fd5b60006133d3826123b0565b91506133de836123b0565b9250826133ee576133ed613399565b5b828204905092915050565b6000613404826123b0565b915061340f836123b0565b92508261341f5761341e613399565b5b828206905092915050565b600081519050919050565b600082825260208201905092915050565b60006134518261342a565b61345b8185613435565b935061346b818560208601612311565b61347481612344565b840191505092915050565b60006080820190506134946000830187612445565b6134a16020830186612445565b6134ae60408301856124db565b81810360608301526134c08184613446565b905095945050505050565b6000815190506134da81612266565b92915050565b6000602082840312156134f6576134f5612230565b5b6000613504848285016134cb565b91505092915050565b7f4e487b7100000000000000000000000000000000000000000000000000000000600052603160045260246000fd5b7f4552433732313a206d696e7420746f20746865207a65726f2061646472657373600082015250565b6000613572602083612300565b915061357d8261353c565b602082019050919050565b600060208201905081810360008301526135a181613565565b9050919050565b7f4552433732313a20746f6b656e20616c7265616479206d696e74656400000000600082015250565b60006135de601c83612300565b91506135e9826135a8565b602082019050919050565b6000602082019050818103600083015261360d816135d1565b905091905056fea2646970667358221220c11d75db62d2c4e54e4076832fbece753cb6b8da4ced17251401f7e665360b7b64736f6c634300080a0033",
  "immutableReferences": {},
  "source": "// SPDX-License-Identifier: MIT\npragma solidity >=0.4.22 <0.9.0;\n\nimport \"openzeppelin-solidity/contracts/utils/Context.sol\";\nimport \"openzeppelin-solidity/contracts/utils/Counters.sol\";\nimport \"openzeppelin-solidity/contracts/access/Ownable.sol\";\nimport \"openzeppelin-solidity/contracts/token/ERC721/extensions/ERC721Enumerable.sol\";\nimport \"openzeppelin-solidity/contracts/token/ERC20/ERC20.sol\";\n\ncontract NFT is ERC721Enumerable,Ownable \n{\n    using Counters for Counters.Counter;\n    Counters.Counter private _tokenIds;\n    mapping (uint256 => string) private _tokenToHero;\n\n    constructor() ERC721(\"Metarrior\", \"Metarrior\") {\n    }\n\n    function mintNft(string memory heroId) public {\n        _tokenIds.increment();\n\n        uint256 newTokenId = _tokenIds.current();\n        _safeMint(msg.sender, newTokenId);\n        _tokenToHero[newTokenId] = heroId;\n    }\n\n    function getHeroByTokenId(uint256 tokenId) public view returns (string memory) {\n        return _tokenToHero[tokenId];\n    }\n\n    function withdraw() public onlyOwner {\n        payable(msg.sender).transfer(address(this).balance);\n    }\n}\n",
  "sourcePath": "/Users/user/Downloads/smartcontracts/contracts/NFT.sol",
  "compiler": {
    "name": "solc",
    "version": "0.8.10+commit.fc410830.Emscripten.clang"
  },
  "schemaVersion": "3.4.3",
  "updatedAt": "2022-02-10T05:10:33.006Z",
  "networkType": "ethereum",
  "devdoc": {
    "kind": "dev",
    "methods": {
      "approve(address,uint256)": {
        "details": "See {IERC721-approve}."
      },
      "balanceOf(address)": {
        "details": "See {IERC721-balanceOf}."
      },
      "getApproved(uint256)": {
        "details": "See {IERC721-getApproved}."
      },
      "isApprovedForAll(address,address)": {
        "details": "See {IERC721-isApprovedForAll}."
      },
      "name()": {
        "details": "See {IERC721Metadata-name}."
      },
      "owner()": {
        "details": "Returns the address of the current owner."
      },
      "ownerOf(uint256)": {
        "details": "See {IERC721-ownerOf}."
      },
      "renounceOwnership()": {
        "details": "Leaves the contract without owner. It will not be possible to call `onlyOwner` functions anymore. Can only be called by the current owner. NOTE: Renouncing ownership will leave the contract without an owner, thereby removing any functionality that is only available to the owner."
      },
      "safeTransferFrom(address,address,uint256)": {
        "details": "See {IERC721-safeTransferFrom}."
      },
      "safeTransferFrom(address,address,uint256,bytes)": {
        "details": "See {IERC721-safeTransferFrom}."
      },
      "setApprovalForAll(address,bool)": {
        "details": "See {IERC721-setApprovalForAll}."
      },
      "supportsInterface(bytes4)": {
        "details": "See {IERC165-supportsInterface}."
      },
      "symbol()": {
        "details": "See {IERC721Metadata-symbol}."
      },
      "tokenByIndex(uint256)": {
        "details": "See {IERC721Enumerable-tokenByIndex}."
      },
      "tokenOfOwnerByIndex(address,uint256)": {
        "details": "See {IERC721Enumerable-tokenOfOwnerByIndex}."
      },
      "tokenURI(uint256)": {
        "details": "See {IERC721Metadata-tokenURI}."
      },
      "totalSupply()": {
        "details": "See {IERC721Enumerable-totalSupply}."
      },
      "transferFrom(address,address,uint256)": {
        "details": "See {IERC721-transferFrom}."
      },
      "transferOwnership(address)": {
        "details": "Transfers ownership of the contract to a new account (`newOwner`). Can only be called by the current owner."
      }
    },
    "version": 1
  },
  "userdoc": {
    "kind": "user",
    "methods": {},
    "version": 1
  }
}